{
  "contractName": "licenceToken",
  "abi": [
    {
      "inputs": [],
      "stateMutability": "nonpayable",
      "type": "constructor"
    },
    {
      "anonymous": false,
      "inputs": [
        {
          "indexed": true,
          "internalType": "address",
          "name": "owner",
          "type": "address"
        },
        {
          "indexed": true,
          "internalType": "address",
          "name": "approved",
          "type": "address"
        },
        {
          "indexed": true,
          "internalType": "uint256",
          "name": "tokenId",
          "type": "uint256"
        }
      ],
      "name": "Approval",
      "type": "event"
    },
    {
      "anonymous": false,
      "inputs": [
        {
          "indexed": true,
          "internalType": "address",
          "name": "owner",
          "type": "address"
        },
        {
          "indexed": true,
          "internalType": "address",
          "name": "operator",
          "type": "address"
        },
        {
          "indexed": false,
          "internalType": "bool",
          "name": "approved",
          "type": "bool"
        }
      ],
      "name": "ApprovalForAll",
      "type": "event"
    },
    {
      "anonymous": false,
      "inputs": [
        {
          "indexed": true,
          "internalType": "address",
          "name": "from",
          "type": "address"
        },
        {
          "indexed": true,
          "internalType": "address",
          "name": "to",
          "type": "address"
        },
        {
          "indexed": true,
          "internalType": "uint256",
          "name": "tokenId",
          "type": "uint256"
        }
      ],
      "name": "Transfer",
      "type": "event"
    },
    {
      "inputs": [
        {
          "internalType": "uint256",
          "name": "",
          "type": "uint256"
        }
      ],
      "name": "Licences",
      "outputs": [
        {
          "internalType": "uint256",
          "name": "id",
          "type": "uint256"
        },
        {
          "internalType": "address",
          "name": "owner",
          "type": "address"
        },
        {
          "internalType": "uint256",
          "name": "user_id",
          "type": "uint256"
        },
        {
          "internalType": "uint256",
          "name": "product_id",
          "type": "uint256"
        }
      ],
      "stateMutability": "view",
      "type": "function",
      "constant": true
    },
    {
      "inputs": [
        {
          "internalType": "address",
          "name": "to",
          "type": "address"
        },
        {
          "internalType": "uint256",
          "name": "tokenId",
          "type": "uint256"
        }
      ],
      "name": "approve",
      "outputs": [],
      "stateMutability": "nonpayable",
      "type": "function"
    },
    {
      "inputs": [
        {
          "internalType": "address",
          "name": "owner",
          "type": "address"
        }
      ],
      "name": "balanceOf",
      "outputs": [
        {
          "internalType": "uint256",
          "name": "",
          "type": "uint256"
        }
      ],
      "stateMutability": "view",
      "type": "function",
      "constant": true
    },
    {
      "inputs": [
        {
          "internalType": "uint256",
          "name": "tokenId",
          "type": "uint256"
        }
      ],
      "name": "getApproved",
      "outputs": [
        {
          "internalType": "address",
          "name": "",
          "type": "address"
        }
      ],
      "stateMutability": "view",
      "type": "function",
      "constant": true
    },
    {
      "inputs": [
        {
          "internalType": "address",
          "name": "owner",
          "type": "address"
        },
        {
          "internalType": "address",
          "name": "operator",
          "type": "address"
        }
      ],
      "name": "isApprovedForAll",
      "outputs": [
        {
          "internalType": "bool",
          "name": "",
          "type": "bool"
        }
      ],
      "stateMutability": "view",
      "type": "function",
      "constant": true
    },
    {
      "inputs": [],
      "name": "marketplace",
      "outputs": [
        {
          "internalType": "address",
          "name": "",
          "type": "address"
        }
      ],
      "stateMutability": "view",
      "type": "function",
      "constant": true
    },
    {
      "inputs": [],
      "name": "name",
      "outputs": [
        {
          "internalType": "string",
          "name": "",
          "type": "string"
        }
      ],
      "stateMutability": "view",
      "type": "function",
      "constant": true
    },
    {
      "inputs": [
        {
          "internalType": "uint256",
          "name": "tokenId",
          "type": "uint256"
        }
      ],
      "name": "ownerOf",
      "outputs": [
        {
          "internalType": "address",
          "name": "",
          "type": "address"
        }
      ],
      "stateMutability": "view",
      "type": "function",
      "constant": true
    },
    {
      "inputs": [
        {
          "internalType": "address",
          "name": "from",
          "type": "address"
        },
        {
          "internalType": "address",
          "name": "to",
          "type": "address"
        },
        {
          "internalType": "uint256",
          "name": "tokenId",
          "type": "uint256"
        }
      ],
      "name": "safeTransferFrom",
      "outputs": [],
      "stateMutability": "nonpayable",
      "type": "function"
    },
    {
      "inputs": [
        {
          "internalType": "address",
          "name": "from",
          "type": "address"
        },
        {
          "internalType": "address",
          "name": "to",
          "type": "address"
        },
        {
          "internalType": "uint256",
          "name": "tokenId",
          "type": "uint256"
        },
        {
          "internalType": "bytes",
          "name": "_data",
          "type": "bytes"
        }
      ],
      "name": "safeTransferFrom",
      "outputs": [],
      "stateMutability": "nonpayable",
      "type": "function"
    },
    {
      "inputs": [
        {
          "internalType": "address",
          "name": "operator",
          "type": "address"
        },
        {
          "internalType": "bool",
          "name": "approved",
          "type": "bool"
        }
      ],
      "name": "setApprovalForAll",
      "outputs": [],
      "stateMutability": "nonpayable",
      "type": "function"
    },
    {
      "inputs": [
        {
          "internalType": "bytes4",
          "name": "interfaceId",
          "type": "bytes4"
        }
      ],
      "name": "supportsInterface",
      "outputs": [
        {
          "internalType": "bool",
          "name": "",
          "type": "bool"
        }
      ],
      "stateMutability": "view",
      "type": "function",
      "constant": true
    },
    {
      "inputs": [],
      "name": "symbol",
      "outputs": [
        {
          "internalType": "string",
          "name": "",
          "type": "string"
        }
      ],
      "stateMutability": "view",
      "type": "function",
      "constant": true
    },
    {
      "inputs": [
        {
          "internalType": "uint256",
          "name": "index",
          "type": "uint256"
        }
      ],
      "name": "tokenByIndex",
      "outputs": [
        {
          "internalType": "uint256",
          "name": "",
          "type": "uint256"
        }
      ],
      "stateMutability": "view",
      "type": "function",
      "constant": true
    },
    {
      "inputs": [
        {
          "internalType": "address",
          "name": "owner",
          "type": "address"
        },
        {
          "internalType": "uint256",
          "name": "index",
          "type": "uint256"
        }
      ],
      "name": "tokenOfOwnerByIndex",
      "outputs": [
        {
          "internalType": "uint256",
          "name": "",
          "type": "uint256"
        }
      ],
      "stateMutability": "view",
      "type": "function",
      "constant": true
    },
    {
      "inputs": [
        {
          "internalType": "uint256",
          "name": "tokenId",
          "type": "uint256"
        }
      ],
      "name": "tokenURI",
      "outputs": [
        {
          "internalType": "string",
          "name": "",
          "type": "string"
        }
      ],
      "stateMutability": "view",
      "type": "function",
      "constant": true
    },
    {
      "inputs": [],
      "name": "totalSupply",
      "outputs": [
        {
          "internalType": "uint256",
          "name": "",
          "type": "uint256"
        }
      ],
      "stateMutability": "view",
      "type": "function",
      "constant": true
    },
    {
      "inputs": [
        {
          "internalType": "address",
          "name": "from",
          "type": "address"
        },
        {
          "internalType": "address",
          "name": "to",
          "type": "address"
        },
        {
          "internalType": "uint256",
          "name": "tokenId",
          "type": "uint256"
        }
      ],
      "name": "transferFrom",
      "outputs": [],
      "stateMutability": "nonpayable",
      "type": "function"
    },
    {
      "inputs": [
        {
          "internalType": "uint256",
          "name": "productId",
          "type": "uint256"
        },
        {
          "internalType": "uint256",
          "name": "userId",
          "type": "uint256"
        }
      ],
      "name": "mint",
      "outputs": [
        {
          "internalType": "uint256",
          "name": "",
          "type": "uint256"
        }
      ],
      "stateMutability": "nonpayable",
      "type": "function"
    },
    {
      "inputs": [
        {
          "internalType": "address",
          "name": "market",
          "type": "address"
        }
      ],
      "name": "setMarketplace",
      "outputs": [],
      "stateMutability": "nonpayable",
      "type": "function"
    },
    {
      "inputs": [
        {
          "internalType": "uint256",
          "name": "id",
          "type": "uint256"
        },
        {
          "internalType": "address",
          "name": "owner_address",
          "type": "address"
        }
      ],
      "name": "setLicenceOwner",
      "outputs": [],
      "stateMutability": "nonpayable",
      "type": "function"
    }
  ],
  "bytecode": "0x60806040523480156200001157600080fd5b506040518060400160405280600c81526020017f6c6963656e6365546f6b656e00000000000000000000000000000000000000008152506040518060400160405280600481526020017f4c43544b00000000000000000000000000000000000000000000000000000000815250816000908051906020019062000096929190620000b8565b508060019080519060200190620000af929190620000b8565b505050620001cc565b828054620000c69062000197565b90600052602060002090601f016020900481019282620000ea576000855562000136565b82601f106200010557805160ff191683800117855562000136565b8280016001018555821562000136579182015b828111156200013557825182559160200191906001019062000118565b5b50905062000145919062000149565b5090565b5b80821115620001645760008160009055506001016200014a565b5090565b7f4e487b7100000000000000000000000000000000000000000000000000000000600052602260045260246000fd5b60006002820490506001821680620001b057607f821691505b602082108103620001c657620001c562000168565b5b50919050565b6132af80620001dc6000396000f3fe608060405234801561001057600080fd5b50600436106101375760003560e01c806342842e0e116100b857806395d89b411161007c57806395d89b4114610387578063a22cb465146103a5578063abc8c7af146103c1578063b88d4fde146103df578063c87b56dd146103fb578063e985e9c51461042b57610137565b806342842e0e146102bf5780634f6ccce7146102db5780636352211e1461030b57806370a082311461033b57806373ad6c2d1461036b57610137565b80631b2ef1ca116100ff5780631b2ef1ca146101f457806323b872dd146102245780632441ee38146102405780632aaa471a146102735780632f745c591461028f57610137565b806301ffc9a71461013c57806306fdde031461016c578063081812fc1461018a578063095ea7b3146101ba57806318160ddd146101d6575b600080fd5b6101566004803603810190610151919061201c565b61045b565b6040516101639190612064565b60405180910390f35b6101746104d5565b6040516101819190612118565b60405180910390f35b6101a4600480360381019061019f9190612170565b610567565b6040516101b191906121de565b60405180910390f35b6101d460048036038101906101cf9190612225565b6105ec565b005b6101de610703565b6040516101eb9190612274565b60405180910390f35b61020e6004803603810190610209919061228f565b610710565b60405161021b9190612274565b60405180910390f35b61023e600480360381019061023991906122cf565b61081c565b005b61025a60048036038101906102559190612170565b61087c565b60405161026a9493929190612322565b60405180910390f35b61028d60048036038101906102889190612367565b6108cc565b005b6102a960048036038101906102a49190612225565b610925565b6040516102b69190612274565b60405180910390f35b6102d960048036038101906102d491906122cf565b6109ca565b005b6102f560048036038101906102f09190612170565b6109ea565b6040516103029190612274565b60405180910390f35b61032560048036038101906103209190612170565b610a5b565b60405161033291906121de565b60405180910390f35b610355600480360381019061035091906123a7565b610b0c565b6040516103629190612274565b60405180910390f35b610385600480360381019061038091906123a7565b610bc3565b005b61038f610c07565b60405161039c9190612118565b60405180910390f35b6103bf60048036038101906103ba9190612400565b610c99565b005b6103c9610caf565b6040516103d691906121de565b60405180910390f35b6103f960048036038101906103f49190612575565b610cd5565b005b61041560048036038101906104109190612170565b610d37565b6040516104229190612118565b60405180910390f35b610445600480360381019061044091906125f8565b610dde565b6040516104529190612064565b60405180910390f35b60007f780e9d63000000000000000000000000000000000000000000000000000000007bffffffffffffffffffffffffffffffffffffffffffffffffffffffff1916827bffffffffffffffffffffffffffffffffffffffffffffffffffffffff191614806104ce57506104cd82610e72565b5b9050919050565b6060600080546104e490612667565b80601f016020809104026020016040519081016040528092919081815260200182805461051090612667565b801561055d5780601f106105325761010080835404028352916020019161055d565b820191906000526020600020905b81548152906001019060200180831161054057829003601f168201915b5050505050905090565b600061057282610f54565b6105b1576040517f08c379a00000000000000000000000000000000000000000000000000000000081526004016105a89061270a565b60405180910390fd5b6004600083815260200190815260200160002060009054906101000a900473ffffffffffffffffffffffffffffffffffffffff169050919050565b60006105f782610a5b565b90508073ffffffffffffffffffffffffffffffffffffffff168373ffffffffffffffffffffffffffffffffffffffff1603610667576040517f08c379a000000000000000000000000000000000000000000000000000000000815260040161065e9061279c565b60405180910390fd5b8073ffffffffffffffffffffffffffffffffffffffff16610686610fc0565b73ffffffffffffffffffffffffffffffffffffffff1614806106b557506106b4816106af610fc0565b610dde565b5b6106f4576040517f08c379a00000000000000000000000000000000000000000000000000000000081526004016106eb9061282e565b60405180910390fd5b6106fe8383610fc8565b505050565b6000600880549050905090565b600061071c600a611081565b6000610728600a611097565b905061073433826110a5565b610760600b60009054906101000a900473ffffffffffffffffffffffffffffffffffffffff16826105ec565b60405180608001604052808281526020013373ffffffffffffffffffffffffffffffffffffffff16815260200184815260200185815250600c60008381526020019081526020016000206000820151816000015560208201518160010160006101000a81548173ffffffffffffffffffffffffffffffffffffffff021916908373ffffffffffffffffffffffffffffffffffffffff16021790555060408201518160020155606082015181600301559050508091505092915050565b61082d610827610fc0565b826110c3565b61086c576040517f08c379a0000000000000000000000000000000000000000000000000000000008152600401610863906128c0565b60405180910390fd5b6108778383836111a1565b505050565b600c6020528060005260406000206000915090508060000154908060010160009054906101000a900473ffffffffffffffffffffffffffffffffffffffff16908060020154908060030154905084565b80600c600084815260200190815260200160002060010160006101000a81548173ffffffffffffffffffffffffffffffffffffffff021916908373ffffffffffffffffffffffffffffffffffffffff1602179055505050565b600061093083610b0c565b8210610971576040517f08c379a000000000000000000000000000000000000000000000000000000000815260040161096890612952565b60405180910390fd5b600660008473ffffffffffffffffffffffffffffffffffffffff1673ffffffffffffffffffffffffffffffffffffffff168152602001908152602001600020600083815260200190815260200160002054905092915050565b6109e583838360405180602001604052806000815250610cd5565b505050565b60006109f4610703565b8210610a35576040517f08c379a0000000000000000000000000000000000000000000000000000000008152600401610a2c906129e4565b60405180910390fd5b60088281548110610a4957610a48612a04565b5b90600052602060002001549050919050565b6000806002600084815260200190815260200160002060009054906101000a900473ffffffffffffffffffffffffffffffffffffffff169050600073ffffffffffffffffffffffffffffffffffffffff168173ffffffffffffffffffffffffffffffffffffffff1603610b03576040517f08c379a0000000000000000000000000000000000000000000000000000000008152600401610afa90612aa5565b60405180910390fd5b80915050919050565b60008073ffffffffffffffffffffffffffffffffffffffff168273ffffffffffffffffffffffffffffffffffffffff1603610b7c576040517f08c379a0000000000000000000000000000000000000000000000000000000008152600401610b7390612b37565b60405180910390fd5b600360008373ffffffffffffffffffffffffffffffffffffffff1673ffffffffffffffffffffffffffffffffffffffff168152602001908152602001600020549050919050565b80600b60006101000a81548173ffffffffffffffffffffffffffffffffffffffff021916908373ffffffffffffffffffffffffffffffffffffffff16021790555050565b606060018054610c1690612667565b80601f0160208091040260200160405190810160405280929190818152602001828054610c4290612667565b8015610c8f5780601f10610c6457610100808354040283529160200191610c8f565b820191906000526020600020905b815481529060010190602001808311610c7257829003601f168201915b5050505050905090565b610cab610ca4610fc0565b8383611407565b5050565b600b60009054906101000a900473ffffffffffffffffffffffffffffffffffffffff1681565b610ce6610ce0610fc0565b836110c3565b610d25576040517f08c379a0000000000000000000000000000000000000000000000000000000008152600401610d1c906128c0565b60405180910390fd5b610d3184848484611573565b50505050565b6060610d4282610f54565b610d81576040517f08c379a0000000000000000000000000000000000000000000000000000000008152600401610d7890612bc9565b60405180910390fd5b6000610d8b6115cf565b90506000815111610dab5760405180602001604052806000815250610dd6565b80610db5846115e6565b604051602001610dc6929190612c25565b6040516020818303038152906040525b915050919050565b6000600560008473ffffffffffffffffffffffffffffffffffffffff1673ffffffffffffffffffffffffffffffffffffffff16815260200190815260200160002060008373ffffffffffffffffffffffffffffffffffffffff1673ffffffffffffffffffffffffffffffffffffffff16815260200190815260200160002060009054906101000a900460ff16905092915050565b60007f80ac58cd000000000000000000000000000000000000000000000000000000007bffffffffffffffffffffffffffffffffffffffffffffffffffffffff1916827bffffffffffffffffffffffffffffffffffffffffffffffffffffffff19161480610f3d57507f5b5e139f000000000000000000000000000000000000000000000000000000007bffffffffffffffffffffffffffffffffffffffffffffffffffffffff1916827bffffffffffffffffffffffffffffffffffffffffffffffffffffffff1916145b80610f4d5750610f4c82611746565b5b9050919050565b60008073ffffffffffffffffffffffffffffffffffffffff166002600084815260200190815260200160002060009054906101000a900473ffffffffffffffffffffffffffffffffffffffff1673ffffffffffffffffffffffffffffffffffffffff1614159050919050565b600033905090565b816004600083815260200190815260200160002060006101000a81548173ffffffffffffffffffffffffffffffffffffffff021916908373ffffffffffffffffffffffffffffffffffffffff160217905550808273ffffffffffffffffffffffffffffffffffffffff1661103b83610a5b565b73ffffffffffffffffffffffffffffffffffffffff167f8c5be1e5ebec7d5bd14f71427d1e84f3dd0314c0f7b2291e5b200ac8c7c3b92560405160405180910390a45050565b6001816000016000828254019250508190555050565b600081600001549050919050565b6110bf8282604051806020016040528060008152506117b0565b5050565b60006110ce82610f54565b61110d576040517f08c379a000000000000000000000000000000000000000000000000000000000815260040161110490612cbb565b60405180910390fd5b600061111883610a5b565b90508073ffffffffffffffffffffffffffffffffffffffff168473ffffffffffffffffffffffffffffffffffffffff16148061118757508373ffffffffffffffffffffffffffffffffffffffff1661116f84610567565b73ffffffffffffffffffffffffffffffffffffffff16145b8061119857506111978185610dde565b5b91505092915050565b8273ffffffffffffffffffffffffffffffffffffffff166111c182610a5b565b73ffffffffffffffffffffffffffffffffffffffff1614611217576040517f08c379a000000000000000000000000000000000000000000000000000000000815260040161120e90612d4d565b60405180910390fd5b600073ffffffffffffffffffffffffffffffffffffffff168273ffffffffffffffffffffffffffffffffffffffff1603611286576040517f08c379a000000000000000000000000000000000000000000000000000000000815260040161127d90612ddf565b60405180910390fd5b61129183838361180b565b61129c600082610fc8565b6001600360008573ffffffffffffffffffffffffffffffffffffffff1673ffffffffffffffffffffffffffffffffffffffff16815260200190815260200160002060008282546112ec9190612e2e565b925050819055506001600360008473ffffffffffffffffffffffffffffffffffffffff1673ffffffffffffffffffffffffffffffffffffffff16815260200190815260200160002060008282546113439190612e62565b92505081905550816002600083815260200190815260200160002060006101000a81548173ffffffffffffffffffffffffffffffffffffffff021916908373ffffffffffffffffffffffffffffffffffffffff160217905550808273ffffffffffffffffffffffffffffffffffffffff168473ffffffffffffffffffffffffffffffffffffffff167fddf252ad1be2c89b69c2b068fc378daa952ba7f163c4a11628f55a4df523b3ef60405160405180910390a461140283838361191d565b505050565b8173ffffffffffffffffffffffffffffffffffffffff168373ffffffffffffffffffffffffffffffffffffffff1603611475576040517f08c379a000000000000000000000000000000000000000000000000000000000815260040161146c90612f04565b60405180910390fd5b80600560008573ffffffffffffffffffffffffffffffffffffffff1673ffffffffffffffffffffffffffffffffffffffff16815260200190815260200160002060008473ffffffffffffffffffffffffffffffffffffffff1673ffffffffffffffffffffffffffffffffffffffff16815260200190815260200160002060006101000a81548160ff0219169083151502179055508173ffffffffffffffffffffffffffffffffffffffff168373ffffffffffffffffffffffffffffffffffffffff167f17307eab39ab6107e8899845ad3d59bd9653f200f220920489ca2b5937696c31836040516115669190612064565b60405180910390a3505050565b61157e8484846111a1565b61158a84848484611922565b6115c9576040517f08c379a00000000000000000000000000000000000000000000000000000000081526004016115c090612f96565b60405180910390fd5b50505050565b606060405180602001604052806000815250905090565b60606000820361162d576040518060400160405280600181526020017f30000000000000000000000000000000000000000000000000000000000000008152509050611741565b600082905060005b6000821461165f57808061164890612fb6565b915050600a82611658919061302d565b9150611635565b60008167ffffffffffffffff81111561167b5761167a61244a565b5b6040519080825280601f01601f1916602001820160405280156116ad5781602001600182028036833780820191505090505b5090505b6000851461173a576001826116c69190612e2e565b9150600a856116d5919061305e565b60306116e19190612e62565b60f81b8183815181106116f7576116f6612a04565b5b60200101907effffffffffffffffffffffffffffffffffffffffffffffffffffffffffffff1916908160001a905350600a85611733919061302d565b94506116b1565b8093505050505b919050565b60007f01ffc9a7000000000000000000000000000000000000000000000000000000007bffffffffffffffffffffffffffffffffffffffffffffffffffffffff1916827bffffffffffffffffffffffffffffffffffffffffffffffffffffffff1916149050919050565b6117ba8383611aa9565b6117c76000848484611922565b611806576040517f08c379a00000000000000000000000000000000000000000000000000000000081526004016117fd90612f96565b60405180910390fd5b505050565b611816838383611c82565b600073ffffffffffffffffffffffffffffffffffffffff168373ffffffffffffffffffffffffffffffffffffffff16036118585761185381611c87565b611897565b8173ffffffffffffffffffffffffffffffffffffffff168373ffffffffffffffffffffffffffffffffffffffff1614611896576118958382611cd0565b5b5b600073ffffffffffffffffffffffffffffffffffffffff168273ffffffffffffffffffffffffffffffffffffffff16036118d9576118d481611e3d565b611918565b8273ffffffffffffffffffffffffffffffffffffffff168273ffffffffffffffffffffffffffffffffffffffff1614611917576119168282611f0e565b5b5b505050565b505050565b60006119438473ffffffffffffffffffffffffffffffffffffffff16611f8d565b15611a9c578373ffffffffffffffffffffffffffffffffffffffff1663150b7a0261196c610fc0565b8786866040518563ffffffff1660e01b815260040161198e94939291906130e4565b6020604051808303816000875af19250505080156119ca57506040513d601f19601f820116820180604052508101906119c79190613145565b60015b611a4c573d80600081146119fa576040519150601f19603f3d011682016040523d82523d6000602084013e6119ff565b606091505b506000815103611a44576040517f08c379a0000000000000000000000000000000000000000000000000000000008152600401611a3b90612f96565b60405180910390fd5b805181602001fd5b63150b7a0260e01b7bffffffffffffffffffffffffffffffffffffffffffffffffffffffff1916817bffffffffffffffffffffffffffffffffffffffffffffffffffffffff191614915050611aa1565b600190505b949350505050565b600073ffffffffffffffffffffffffffffffffffffffff168273ffffffffffffffffffffffffffffffffffffffff1603611b18576040517f08c379a0000000000000000000000000000000000000000000000000000000008152600401611b0f906131be565b60405180910390fd5b611b2181610f54565b15611b61576040517f08c379a0000000000000000000000000000000000000000000000000000000008152600401611b589061322a565b60405180910390fd5b611b6d6000838361180b565b6001600360008473ffffffffffffffffffffffffffffffffffffffff1673ffffffffffffffffffffffffffffffffffffffff1681526020019081526020016000206000828254611bbd9190612e62565b92505081905550816002600083815260200190815260200160002060006101000a81548173ffffffffffffffffffffffffffffffffffffffff021916908373ffffffffffffffffffffffffffffffffffffffff160217905550808273ffffffffffffffffffffffffffffffffffffffff16600073ffffffffffffffffffffffffffffffffffffffff167fddf252ad1be2c89b69c2b068fc378daa952ba7f163c4a11628f55a4df523b3ef60405160405180910390a4611c7e6000838361191d565b5050565b505050565b6008805490506009600083815260200190815260200160002081905550600881908060018154018082558091505060019003906000526020600020016000909190919091505550565b60006001611cdd84610b0c565b611ce79190612e2e565b9050600060076000848152602001908152602001600020549050818114611dcc576000600660008673ffffffffffffffffffffffffffffffffffffffff1673ffffffffffffffffffffffffffffffffffffffff168152602001908152602001600020600084815260200190815260200160002054905080600660008773ffffffffffffffffffffffffffffffffffffffff1673ffffffffffffffffffffffffffffffffffffffff168152602001908152602001600020600084815260200190815260200160002081905550816007600083815260200190815260200160002081905550505b6007600084815260200190815260200160002060009055600660008573ffffffffffffffffffffffffffffffffffffffff1673ffffffffffffffffffffffffffffffffffffffff16815260200190815260200160002060008381526020019081526020016000206000905550505050565b60006001600880549050611e519190612e2e565b9050600060096000848152602001908152602001600020549050600060088381548110611e8157611e80612a04565b5b906000526020600020015490508060088381548110611ea357611ea2612a04565b5b906000526020600020018190555081600960008381526020019081526020016000208190555060096000858152602001908152602001600020600090556008805480611ef257611ef161324a565b5b6001900381819060005260206000200160009055905550505050565b6000611f1983610b0c565b905081600660008573ffffffffffffffffffffffffffffffffffffffff1673ffffffffffffffffffffffffffffffffffffffff168152602001908152602001600020600083815260200190815260200160002081905550806007600084815260200190815260200160002081905550505050565b6000808273ffffffffffffffffffffffffffffffffffffffff163b119050919050565b6000604051905090565b600080fd5b600080fd5b60007fffffffff0000000000000000000000000000000000000000000000000000000082169050919050565b611ff981611fc4565b811461200457600080fd5b50565b60008135905061201681611ff0565b92915050565b60006020828403121561203257612031611fba565b5b600061204084828501612007565b91505092915050565b60008115159050919050565b61205e81612049565b82525050565b60006020820190506120796000830184612055565b92915050565b600081519050919050565b600082825260208201905092915050565b60005b838110156120b957808201518184015260208101905061209e565b838111156120c8576000848401525b50505050565b6000601f19601f8301169050919050565b60006120ea8261207f565b6120f4818561208a565b935061210481856020860161209b565b61210d816120ce565b840191505092915050565b6000602082019050818103600083015261213281846120df565b905092915050565b6000819050919050565b61214d8161213a565b811461215857600080fd5b50565b60008135905061216a81612144565b92915050565b60006020828403121561218657612185611fba565b5b60006121948482850161215b565b91505092915050565b600073ffffffffffffffffffffffffffffffffffffffff82169050919050565b60006121c88261219d565b9050919050565b6121d8816121bd565b82525050565b60006020820190506121f360008301846121cf565b92915050565b612202816121bd565b811461220d57600080fd5b50565b60008135905061221f816121f9565b92915050565b6000806040838503121561223c5761223b611fba565b5b600061224a85828601612210565b925050602061225b8582860161215b565b9150509250929050565b61226e8161213a565b82525050565b60006020820190506122896000830184612265565b92915050565b600080604083850312156122a6576122a5611fba565b5b60006122b48582860161215b565b92505060206122c58582860161215b565b9150509250929050565b6000806000606084860312156122e8576122e7611fba565b5b60006122f686828701612210565b935050602061230786828701612210565b92505060406123188682870161215b565b9150509250925092565b60006080820190506123376000830187612265565b61234460208301866121cf565b6123516040830185612265565b61235e6060830184612265565b95945050505050565b6000806040838503121561237e5761237d611fba565b5b600061238c8582860161215b565b925050602061239d85828601612210565b9150509250929050565b6000602082840312156123bd576123bc611fba565b5b60006123cb84828501612210565b91505092915050565b6123dd81612049565b81146123e857600080fd5b50565b6000813590506123fa816123d4565b92915050565b6000806040838503121561241757612416611fba565b5b600061242585828601612210565b9250506020612436858286016123eb565b9150509250929050565b600080fd5b600080fd5b7f4e487b7100000000000000000000000000000000000000000000000000000000600052604160045260246000fd5b612482826120ce565b810181811067ffffffffffffffff821117156124a1576124a061244a565b5b80604052505050565b60006124b4611fb0565b90506124c08282612479565b919050565b600067ffffffffffffffff8211156124e0576124df61244a565b5b6124e9826120ce565b9050602081019050919050565b82818337600083830152505050565b6000612518612513846124c5565b6124aa565b90508281526020810184848401111561253457612533612445565b5b61253f8482856124f6565b509392505050565b600082601f83011261255c5761255b612440565b5b813561256c848260208601612505565b91505092915050565b6000806000806080858703121561258f5761258e611fba565b5b600061259d87828801612210565b94505060206125ae87828801612210565b93505060406125bf8782880161215b565b925050606085013567ffffffffffffffff8111156125e0576125df611fbf565b5b6125ec87828801612547565b91505092959194509250565b6000806040838503121561260f5761260e611fba565b5b600061261d85828601612210565b925050602061262e85828601612210565b9150509250929050565b7f4e487b7100000000000000000000000000000000000000000000000000000000600052602260045260246000fd5b6000600282049050600182168061267f57607f821691505b60208210810361269257612691612638565b5b50919050565b7f4552433732313a20617070726f76656420717565727920666f72206e6f6e657860008201527f697374656e7420746f6b656e0000000000000000000000000000000000000000602082015250565b60006126f4602c8361208a565b91506126ff82612698565b604082019050919050565b60006020820190508181036000830152612723816126e7565b9050919050565b7f4552433732313a20617070726f76616c20746f2063757272656e74206f776e6560008201527f7200000000000000000000000000000000000000000000000000000000000000602082015250565b600061278660218361208a565b91506127918261272a565b604082019050919050565b600060208201905081810360008301526127b581612779565b9050919050565b7f4552433732313a20617070726f76652063616c6c6572206973206e6f74206f7760008201527f6e6572206e6f7220617070726f76656420666f7220616c6c0000000000000000602082015250565b600061281860388361208a565b9150612823826127bc565b604082019050919050565b600060208201905081810360008301526128478161280b565b9050919050565b7f4552433732313a207472616e736665722063616c6c6572206973206e6f74206f60008201527f776e6572206e6f7220617070726f766564000000000000000000000000000000602082015250565b60006128aa60318361208a565b91506128b58261284e565b604082019050919050565b600060208201905081810360008301526128d98161289d565b9050919050565b7f455243373231456e756d657261626c653a206f776e657220696e646578206f7560008201527f74206f6620626f756e6473000000000000000000000000000000000000000000602082015250565b600061293c602b8361208a565b9150612947826128e0565b604082019050919050565b6000602082019050818103600083015261296b8161292f565b9050919050565b7f455243373231456e756d657261626c653a20676c6f62616c20696e646578206f60008201527f7574206f6620626f756e64730000000000000000000000000000000000000000602082015250565b60006129ce602c8361208a565b91506129d982612972565b604082019050919050565b600060208201905081810360008301526129fd816129c1565b9050919050565b7f4e487b7100000000000000000000000000000000000000000000000000000000600052603260045260246000fd5b7f4552433732313a206f776e657220717565727920666f72206e6f6e657869737460008201527f656e7420746f6b656e0000000000000000000000000000000000000000000000602082015250565b6000612a8f60298361208a565b9150612a9a82612a33565b604082019050919050565b60006020820190508181036000830152612abe81612a82565b9050919050565b7f4552433732313a2062616c616e636520717565727920666f7220746865207a6560008201527f726f206164647265737300000000000000000000000000000000000000000000602082015250565b6000612b21602a8361208a565b9150612b2c82612ac5565b604082019050919050565b60006020820190508181036000830152612b5081612b14565b9050919050565b7f4552433732314d657461646174613a2055524920717565727920666f72206e6f60008201527f6e6578697374656e7420746f6b656e0000000000000000000000000000000000602082015250565b6000612bb3602f8361208a565b9150612bbe82612b57565b604082019050919050565b60006020820190508181036000830152612be281612ba6565b9050919050565b600081905092915050565b6000612bff8261207f565b612c098185612be9565b9350612c1981856020860161209b565b80840191505092915050565b6000612c318285612bf4565b9150612c3d8284612bf4565b91508190509392505050565b7f4552433732313a206f70657261746f7220717565727920666f72206e6f6e657860008201527f697374656e7420746f6b656e0000000000000000000000000000000000000000602082015250565b6000612ca5602c8361208a565b9150612cb082612c49565b604082019050919050565b60006020820190508181036000830152612cd481612c98565b9050919050565b7f4552433732313a207472616e736665722066726f6d20696e636f72726563742060008201527f6f776e6572000000000000000000000000000000000000000000000000000000602082015250565b6000612d3760258361208a565b9150612d4282612cdb565b604082019050919050565b60006020820190508181036000830152612d6681612d2a565b9050919050565b7f4552433732313a207472616e7366657220746f20746865207a65726f2061646460008201527f7265737300000000000000000000000000000000000000000000000000000000602082015250565b6000612dc960248361208a565b9150612dd482612d6d565b604082019050919050565b60006020820190508181036000830152612df881612dbc565b9050919050565b7f4e487b7100000000000000000000000000000000000000000000000000000000600052601160045260246000fd5b6000612e398261213a565b9150612e448361213a565b925082821015612e5757612e56612dff565b5b828203905092915050565b6000612e6d8261213a565b9150612e788361213a565b9250827fffffffffffffffffffffffffffffffffffffffffffffffffffffffffffffffff03821115612ead57612eac612dff565b5b828201905092915050565b7f4552433732313a20617070726f766520746f2063616c6c657200000000000000600082015250565b6000612eee60198361208a565b9150612ef982612eb8565b602082019050919050565b60006020820190508181036000830152612f1d81612ee1565b9050919050565b7f4552433732313a207472616e7366657220746f206e6f6e20455243373231526560008201527f63656976657220696d706c656d656e7465720000000000000000000000000000602082015250565b6000612f8060328361208a565b9150612f8b82612f24565b604082019050919050565b60006020820190508181036000830152612faf81612f73565b9050919050565b6000612fc18261213a565b91507fffffffffffffffffffffffffffffffffffffffffffffffffffffffffffffffff8203612ff357612ff2612dff565b5b600182019050919050565b7f4e487b7100000000000000000000000000000000000000000000000000000000600052601260045260246000fd5b60006130388261213a565b91506130438361213a565b92508261305357613052612ffe565b5b828204905092915050565b60006130698261213a565b91506130748361213a565b92508261308457613083612ffe565b5b828206905092915050565b600081519050919050565b600082825260208201905092915050565b60006130b68261308f565b6130c0818561309a565b93506130d081856020860161209b565b6130d9816120ce565b840191505092915050565b60006080820190506130f960008301876121cf565b61310660208301866121cf565b6131136040830185612265565b818103606083015261312581846130ab565b905095945050505050565b60008151905061313f81611ff0565b92915050565b60006020828403121561315b5761315a611fba565b5b600061316984828501613130565b91505092915050565b7f4552433732313a206d696e7420746f20746865207a65726f2061646472657373600082015250565b60006131a860208361208a565b91506131b382613172565b602082019050919050565b600060208201905081810360008301526131d78161319b565b9050919050565b7f4552433732313a20746f6b656e20616c7265616479206d696e74656400000000600082015250565b6000613214601c8361208a565b915061321f826131de565b602082019050919050565b6000602082019050818103600083015261324381613207565b9050919050565b7f4e487b7100000000000000000000000000000000000000000000000000000000600052603160045260246000fdfea2646970667358221220fa9051d9554b9be217a0b0164ddcb3379040a6d7756d8cda490164777245012d64736f6c634300080e0033",
  "immutableReferences": {},
  "source": "// SPDX-License-Identifier: MIT\r\npragma solidity ^0.8.14;\r\n\r\n\r\nimport \"../node_modules/@openzeppelin/contracts/token/ERC721/IERC721.sol\";\r\nimport \"../node_modules/@openzeppelin/contracts/token/ERC721/extensions/ERC721Enumerable.sol\";\r\nimport \"../node_modules/@openzeppelin/contracts/utils/Counters.sol\";\r\n\r\ncontract licenceToken is ERC721Enumerable{\r\n  using Counters for Counters.Counter;\r\n\r\n  Counters.Counter private _tokenIds;\r\n  address public marketplace;\r\n\r\n  struct Licence {\r\n    uint256 id;\r\n    address owner;\r\n    uint256 user_id;\r\n    uint256 product_id;\r\n  }\r\n\r\n  mapping(uint256 => Licence) public Licences;\r\n\r\n  constructor () ERC721(\"licenceToken\", \"LCTK\") {}\r\n\r\n  function mint(uint256 productId, uint256 userId) public returns (uint256){\r\n    _tokenIds.increment();\r\n    uint256 newLicenceId = _tokenIds.current();\r\n    _safeMint(msg.sender, newLicenceId);\r\n    approve(marketplace, newLicenceId);\r\n\r\n    Licences[newLicenceId] = Licence({\r\n      id: newLicenceId, \r\n      owner: msg.sender,\r\n      user_id: userId,\r\n      product_id: productId\r\n    });\r\n\r\n    return newLicenceId;\r\n  }\r\n\r\n  function setMarketplace(address market) public {\r\n    marketplace = market;\r\n  }\r\n\r\n  function setLicenceOwner(uint256 id, address owner_address) public {\r\n    Licences[id].owner = owner_address;\r\n  }\r\n}",
  "sourcePath": "/home/jorge/tfg/new-nft-market/contracts/licenceToken.sol",
  "compiler": {
    "name": "solc",
    "version": "0.8.14+commit.80d49f37.Emscripten.clang"
  },
  "schemaVersion": "3.4.8",
  "updatedAt": "2022-07-10T16:12:18.615Z",
  "networkType": "ethereum",
  "devdoc": {
    "kind": "dev",
    "methods": {
      "approve(address,uint256)": {
        "details": "See {IERC721-approve}."
      },
      "balanceOf(address)": {
        "details": "See {IERC721-balanceOf}."
      },
      "getApproved(uint256)": {
        "details": "See {IERC721-getApproved}."
      },
      "isApprovedForAll(address,address)": {
        "details": "See {IERC721-isApprovedForAll}."
      },
      "name()": {
        "details": "See {IERC721Metadata-name}."
      },
      "ownerOf(uint256)": {
        "details": "See {IERC721-ownerOf}."
      },
      "safeTransferFrom(address,address,uint256)": {
        "details": "See {IERC721-safeTransferFrom}."
      },
      "safeTransferFrom(address,address,uint256,bytes)": {
        "details": "See {IERC721-safeTransferFrom}."
      },
      "setApprovalForAll(address,bool)": {
        "details": "See {IERC721-setApprovalForAll}."
      },
      "supportsInterface(bytes4)": {
        "details": "See {IERC165-supportsInterface}."
      },
      "symbol()": {
        "details": "See {IERC721Metadata-symbol}."
      },
      "tokenByIndex(uint256)": {
        "details": "See {IERC721Enumerable-tokenByIndex}."
      },
      "tokenOfOwnerByIndex(address,uint256)": {
        "details": "See {IERC721Enumerable-tokenOfOwnerByIndex}."
      },
      "tokenURI(uint256)": {
        "details": "See {IERC721Metadata-tokenURI}."
      },
      "totalSupply()": {
        "details": "See {IERC721Enumerable-totalSupply}."
      },
      "transferFrom(address,address,uint256)": {
        "details": "See {IERC721-transferFrom}."
      }
    },
    "version": 1
  },
  "userdoc": {
    "kind": "user",
    "methods": {},
    "version": 1
  }
}