{
  "contractName": "marketplace",
  "abi": [
    {
      "inputs": [
        {
          "internalType": "contract licenceToken",
          "name": "_token",
          "type": "address"
        }
      ],
      "stateMutability": "nonpayable",
      "type": "constructor"
    },
    {
      "anonymous": false,
      "inputs": [
        {
          "indexed": false,
          "internalType": "uint256",
          "name": "id",
          "type": "uint256"
        },
        {
          "indexed": false,
          "internalType": "uint256",
          "name": "tokenId",
          "type": "uint256"
        },
        {
          "indexed": false,
          "internalType": "uint256",
          "name": "price",
          "type": "uint256"
        }
      ],
      "name": "LicenceAddedForSale",
      "type": "event"
    },
    {
      "anonymous": false,
      "inputs": [
        {
          "indexed": false,
          "internalType": "uint256",
          "name": "id",
          "type": "uint256"
        },
        {
          "indexed": false,
          "internalType": "address",
          "name": "buyer",
          "type": "address"
        },
        {
          "indexed": false,
          "internalType": "uint256",
          "name": "price",
          "type": "uint256"
        }
      ],
      "name": "LicenceSold",
      "type": "event"
    },
    {
      "inputs": [
        {
          "internalType": "uint256",
          "name": "",
          "type": "uint256"
        }
      ],
      "name": "_LicenceForSale",
      "outputs": [
        {
          "internalType": "uint256",
          "name": "id",
          "type": "uint256"
        },
        {
          "internalType": "uint256",
          "name": "tokenId",
          "type": "uint256"
        },
        {
          "internalType": "address payable",
          "name": "seller",
          "type": "address"
        },
        {
          "internalType": "uint256",
          "name": "price",
          "type": "uint256"
        },
        {
          "internalType": "bool",
          "name": "isSold",
          "type": "bool"
        }
      ],
      "stateMutability": "view",
      "type": "function",
      "constant": true
    },
    {
      "inputs": [],
      "name": "_licenceForSaleLength",
      "outputs": [
        {
          "internalType": "uint256",
          "name": "",
          "type": "uint256"
        }
      ],
      "stateMutability": "view",
      "type": "function",
      "constant": true
    },
    {
      "inputs": [
        {
          "internalType": "uint256",
          "name": "",
          "type": "uint256"
        }
      ],
      "name": "activeLicences",
      "outputs": [
        {
          "internalType": "bool",
          "name": "",
          "type": "bool"
        }
      ],
      "stateMutability": "view",
      "type": "function",
      "constant": true
    },
    {
      "inputs": [
        {
          "internalType": "uint256",
          "name": "tokenId",
          "type": "uint256"
        },
        {
          "internalType": "uint256",
          "name": "price",
          "type": "uint256"
        }
      ],
      "name": "SaleLicence",
      "outputs": [
        {
          "internalType": "uint256",
          "name": "",
          "type": "uint256"
        }
      ],
      "stateMutability": "nonpayable",
      "type": "function"
    },
    {
      "inputs": [
        {
          "internalType": "uint256",
          "name": "id",
          "type": "uint256"
        }
      ],
      "name": "BuyLicence",
      "outputs": [],
      "stateMutability": "payable",
      "type": "function",
      "payable": true
    },
    {
      "inputs": [],
      "name": "get_LicenceForSale",
      "outputs": [
        {
          "components": [
            {
              "internalType": "uint256",
              "name": "id",
              "type": "uint256"
            },
            {
              "internalType": "uint256",
              "name": "tokenId",
              "type": "uint256"
            },
            {
              "internalType": "address payable",
              "name": "seller",
              "type": "address"
            },
            {
              "internalType": "uint256",
              "name": "price",
              "type": "uint256"
            },
            {
              "internalType": "bool",
              "name": "isSold",
              "type": "bool"
            }
          ],
          "internalType": "struct marketplace.LicenceForSale[]",
          "name": "",
          "type": "tuple[]"
        }
      ],
      "stateMutability": "view",
      "type": "function",
      "constant": true
    },
    {
      "inputs": [],
      "name": "getLength",
      "outputs": [
        {
          "internalType": "uint256",
          "name": "",
          "type": "uint256"
        }
      ],
      "stateMutability": "view",
      "type": "function",
      "constant": true
    }
  ],
  "bytecode": "0x608060405260006003553480156200001657600080fd5b50604051620014eb380380620014eb83398181016040528101906200003c919062000101565b806000806101000a81548173ffffffffffffffffffffffffffffffffffffffff021916908373ffffffffffffffffffffffffffffffffffffffff1602179055505062000133565b600080fd5b600073ffffffffffffffffffffffffffffffffffffffff82169050919050565b6000620000b58262000088565b9050919050565b6000620000c982620000a8565b9050919050565b620000db81620000bc565b8114620000e757600080fd5b50565b600081519050620000fb81620000d0565b92915050565b6000602082840312156200011a576200011962000083565b5b60006200012a84828501620000ea565b91505092915050565b6113a880620001436000396000f3fe6080604052600436106100705760003560e01c8063a20534bd1161004e578063a20534bd146100f9578063bb2b88151461013a578063be1c766b14610177578063fe550ed8146101a257610070565b80630cad885c146100755780634849f19f146100915780639a872cd7146100bc575b600080fd5b61008f600480360381019061008a9190610be7565b6101cd565b005b34801561009d57600080fd5b506100a66106fe565b6040516100b39190610d96565b60405180910390f35b3480156100c857600080fd5b506100e360048036038101906100de9190610be7565b6107ec565b6040516100f09190610dc7565b60405180910390f35b34801561010557600080fd5b50610120600480360381019061011b9190610be7565b61080c565b604051610131959493929190610e00565b60405180910390f35b34801561014657600080fd5b50610161600480360381019061015c9190610e53565b61087f565b60405161016e9190610e93565b60405180910390f35b34801561018357600080fd5b5061018c610b99565b6040516101999190610e93565b60405180910390f35b3480156101ae57600080fd5b506101b7610ba6565b6040516101c49190610e93565b60405180910390f35b8060018054905081108015610206575080600182815481106101f2576101f1610eae565b5b906000526020600020906005020160000154145b610245576040517f08c379a000000000000000000000000000000000000000000000000000000000815260040161023c90610f3a565b60405180910390fd5b816001818154811061025a57610259610eae565b5b906000526020600020906005020160040160009054906101000a900460ff16156102b9576040517f08c379a00000000000000000000000000000000000000000000000000000000081526004016102b090610fcc565b60405180910390fd5b600183815481106102cd576102cc610eae565b5b906000526020600020906005020160030154341015610321576040517f08c379a000000000000000000000000000000000000000000000000000000000815260040161031890611038565b60405180910390fd5b6001838154811061033557610334610eae565b5b906000526020600020906005020160020160009054906101000a900473ffffffffffffffffffffffffffffffffffffffff1673ffffffffffffffffffffffffffffffffffffffff163373ffffffffffffffffffffffffffffffffffffffff16036103d4576040517f08c379a00000000000000000000000000000000000000000000000000000000081526004016103cb906110a4565b60405180910390fd5b60018084815481106103e9576103e8610eae565b5b906000526020600020906005020160040160006101000a81548160ff0219169083151502179055506000600260006001868154811061042b5761042a610eae565b5b906000526020600020906005020160010154815260200190815260200160002060006101000a81548160ff02191690831515021790555060008054906101000a900473ffffffffffffffffffffffffffffffffffffffff1673ffffffffffffffffffffffffffffffffffffffff166342842e0e600185815481106104b2576104b1610eae565b5b906000526020600020906005020160020160009054906101000a900473ffffffffffffffffffffffffffffffffffffffff1633600187815481106104f9576104f8610eae565b5b9060005260206000209060050201600101546040518463ffffffff1660e01b815260040161052993929190611144565b600060405180830381600087803b15801561054357600080fd5b505af1158015610557573d6000803e3d6000fd5b5050505060008054906101000a900473ffffffffffffffffffffffffffffffffffffffff1673ffffffffffffffffffffffffffffffffffffffff16632aaa471a600185815481106105ab576105aa610eae565b5b906000526020600020906005020160010154336040518363ffffffff1660e01b81526004016105db92919061117b565b600060405180830381600087803b1580156105f557600080fd5b505af1158015610609573d6000803e3d6000fd5b505050506001838154811061062157610620610eae565b5b906000526020600020906005020160020160009054906101000a900473ffffffffffffffffffffffffffffffffffffffff1673ffffffffffffffffffffffffffffffffffffffff166108fc349081150290604051600060405180830381858888f19350505050158015610698573d6000803e3d6000fd5b507fa57a157e3535d059a7aca18399faba22b51bafd56e11304c5712a8ad146367688333600186815481106106d0576106cf610eae565b5b9060005260206000209060050201600301546040516106f1939291906111a4565b60405180910390a1505050565b60606001805480602002602001604051908101604052809291908181526020016000905b828210156107e357838290600052602060002090600502016040518060a001604052908160008201548152602001600182015481526020016002820160009054906101000a900473ffffffffffffffffffffffffffffffffffffffff1673ffffffffffffffffffffffffffffffffffffffff1673ffffffffffffffffffffffffffffffffffffffff168152602001600382015481526020016004820160009054906101000a900460ff16151515158152505081526020019060010190610722565b50505050905090565b60026020528060005260406000206000915054906101000a900460ff1681565b6001818154811061081c57600080fd5b90600052602060002090600502016000915090508060000154908060010154908060020160009054906101000a900473ffffffffffffffffffffffffffffffffffffffff16908060030154908060040160009054906101000a900460ff16905085565b6000823373ffffffffffffffffffffffffffffffffffffffff1660008054906101000a900473ffffffffffffffffffffffffffffffffffffffff1673ffffffffffffffffffffffffffffffffffffffff16636352211e836040518263ffffffff1660e01b81526004016108f29190610e93565b602060405180830381865afa15801561090f573d6000803e3d6000fd5b505050506040513d601f19601f820116820180604052508101906109339190611207565b73ffffffffffffffffffffffffffffffffffffffff1614610989576040517f08c379a000000000000000000000000000000000000000000000000000000000815260040161098090611280565b60405180910390fd5b6002600085815260200190815260200160002060009054906101000a900460ff16156109ea576040517f08c379a00000000000000000000000000000000000000000000000000000000081526004016109e1906112ec565b60405180910390fd5b6000600180549050905060016040518060a001604052808381526020018781526020013373ffffffffffffffffffffffffffffffffffffffff168152602001868152602001600015158152509080600181540180825580915050600190039060005260206000209060050201600090919091909150600082015181600001556020820151816001015560408201518160020160006101000a81548173ffffffffffffffffffffffffffffffffffffffff021916908373ffffffffffffffffffffffffffffffffffffffff1602179055506060820151816003015560808201518160040160006101000a81548160ff021916908315150217905550505060018054905060038190555060016002600087815260200190815260200160002060006101000a81548160ff0219169083151502179055508060018281548110610b3357610b32610eae565b5b90600052602060002090600502016000015414610b5357610b5261130c565b5b7f7fe8175ab238c0c80a48be032634a1268fc4cd81907de063a8f637658b9e92b2818686604051610b869392919061133b565b60405180910390a1809250505092915050565b6000600180549050905090565b60035481565b600080fd5b6000819050919050565b610bc481610bb1565b8114610bcf57600080fd5b50565b600081359050610be181610bbb565b92915050565b600060208284031215610bfd57610bfc610bac565b5b6000610c0b84828501610bd2565b91505092915050565b600081519050919050565b600082825260208201905092915050565b6000819050602082019050919050565b610c4981610bb1565b82525050565b600073ffffffffffffffffffffffffffffffffffffffff82169050919050565b6000610c7a82610c4f565b9050919050565b610c8a81610c6f565b82525050565b60008115159050919050565b610ca581610c90565b82525050565b60a082016000820151610cc16000850182610c40565b506020820151610cd46020850182610c40565b506040820151610ce76040850182610c81565b506060820151610cfa6060850182610c40565b506080820151610d0d6080850182610c9c565b50505050565b6000610d1f8383610cab565b60a08301905092915050565b6000602082019050919050565b6000610d4382610c14565b610d4d8185610c1f565b9350610d5883610c30565b8060005b83811015610d89578151610d708882610d13565b9750610d7b83610d2b565b925050600181019050610d5c565b5085935050505092915050565b60006020820190508181036000830152610db08184610d38565b905092915050565b610dc181610c90565b82525050565b6000602082019050610ddc6000830184610db8565b92915050565b610deb81610bb1565b82525050565b610dfa81610c6f565b82525050565b600060a082019050610e156000830188610de2565b610e226020830187610de2565b610e2f6040830186610df1565b610e3c6060830185610de2565b610e496080830184610db8565b9695505050505050565b60008060408385031215610e6a57610e69610bac565b5b6000610e7885828601610bd2565b9250506020610e8985828601610bd2565b9150509250929050565b6000602082019050610ea86000830184610de2565b92915050565b7f4e487b7100000000000000000000000000000000000000000000000000000000600052603260045260246000fd5b600082825260208201905092915050565b7f4c6963656e636520646f6573206e6f7420657869737400000000000000000000600082015250565b6000610f24601683610edd565b9150610f2f82610eee565b602082019050919050565b60006020820190508181036000830152610f5381610f17565b9050919050565b7f4c6963656e636520697320616c726561647920736f6c64206f7220697420697360008201527f206e6f7420666f722073616c6500000000000000000000000000000000000000602082015250565b6000610fb6602d83610edd565b9150610fc182610f5a565b604082019050919050565b60006020820190508181036000830152610fe581610fa9565b9050919050565b7f4e6f7420656e6f7567682066756e64732073656e740000000000000000000000600082015250565b6000611022601583610edd565b915061102d82610fec565b602082019050919050565b6000602082019050818103600083015261105181611015565b9050919050565b7f486f6c6100000000000000000000000000000000000000000000000000000000600082015250565b600061108e600483610edd565b915061109982611058565b602082019050919050565b600060208201905081810360008301526110bd81611081565b9050919050565b6000819050919050565b60006110e96110e46110df84610c4f565b6110c4565b610c4f565b9050919050565b60006110fb826110ce565b9050919050565b600061110d826110f0565b9050919050565b61111d81611102565b82525050565b600061112e82610c4f565b9050919050565b61113e81611123565b82525050565b60006060820190506111596000830186611114565b6111666020830185611135565b6111736040830184610de2565b949350505050565b60006040820190506111906000830185610de2565b61119d6020830184611135565b9392505050565b60006060820190506111b96000830186610de2565b6111c66020830185611135565b6111d36040830184610de2565b949350505050565b6111e481611123565b81146111ef57600080fd5b50565b600081519050611201816111db565b92915050565b60006020828403121561121d5761121c610bac565b5b600061122b848285016111f2565b91505092915050565b7f4e6f7420746865206f776e6572206f6620746865206c6963656e636500000000600082015250565b600061126a601c83610edd565b915061127582611234565b602082019050919050565b600060208201905081810360008301526112998161125d565b9050919050565b7f4c6963656e636520697320616c726561647920757020666f722073616c650000600082015250565b60006112d6601e83610edd565b91506112e1826112a0565b602082019050919050565b60006020820190508181036000830152611305816112c9565b9050919050565b7f4e487b7100000000000000000000000000000000000000000000000000000000600052600160045260246000fd5b60006060820190506113506000830186610de2565b61135d6020830185610de2565b61136a6040830184610de2565b94935050505056fea2646970667358221220897a4bb7084acd224071f4fb3493f9fd479dcf954e419b8fe1c13970309bca8c64736f6c634300080e0033",
  "immutableReferences": {},
  "source": "// SPDX-License-Identifier: MIT\npragma solidity ^0.8.14;\n\nimport \"../contracts/licenceToken.sol\";\n\ncontract marketplace {\n  licenceToken private token;\n\n  struct LicenceForSale {\n    uint256 id;\n    uint256 tokenId;\n    address payable seller;\n    uint256 price;\n    bool isSold;\n  }\n\n  LicenceForSale[] public _LicenceForSale;\n  mapping(uint256 => bool) public activeLicences; \n  uint256 public _licenceForSaleLength = 0;\n\n  event LicenceAddedForSale(uint256 id, uint256 tokenId, uint256 price);\n  event LicenceSold(uint256 id, address buyer, uint256 price);\n\n  constructor(licenceToken _token) {\n      token = _token;\n  }\n\n  modifier OnlyLicenceOwner(uint256 tokenId){\n    require(token.ownerOf(tokenId) == msg.sender, \"Not the owner of the licence\");\n    _;\n  }\n\n  //modifier HasTransferApproval(uint256 tokenId){\n    //require(token.getApproved(tokenId) == address(this), \"Market not approved\");\n    //_;\n  //}\n\n  modifier LicenceExist(uint256 id){\n    require(id < _LicenceForSale.length && _LicenceForSale[id].id == id, \"Licence does not exist\");\n    _;\n  }\n\n  modifier IsForSale(uint256 id){\n    require(!_LicenceForSale[id].isSold, \"Licence is already sold or it is not for sale\");\n    _;\n  }\n\n  function SaleLicence(uint tokenId, uint price) \n    OnlyLicenceOwner(tokenId) \n   // HasTransferApproval(tokenId) \n    external \n    returns (uint256){\n      \n      require(!activeLicences[tokenId], \"Licence is already up for sale\");\n\n      uint256 newLicenceId = _LicenceForSale.length;\n      _LicenceForSale.push(LicenceForSale({\n        id: newLicenceId,\n        tokenId: tokenId,\n        seller: payable(msg.sender),\n        price: price,\n        isSold: false\n      }));\n      _licenceForSaleLength = _LicenceForSale.length;\n      activeLicences[tokenId] = true;\n\n\n      assert(_LicenceForSale[newLicenceId].id == newLicenceId);\n      emit LicenceAddedForSale(newLicenceId, tokenId, price);\n      return newLicenceId;\n  }\n\n  function BuyLicence(uint256 id) \n    LicenceExist(id)\n    IsForSale(id)\n   // HasTransferApproval(_LicenceForSale[id].tokenId)\n    payable \n    external {\n      require(msg.value >= _LicenceForSale[id].price, \"Not enough funds sent\");\n      require(msg.sender != _LicenceForSale[id].seller, \"Hola\");\n\n      _LicenceForSale[id].isSold = true;\n      activeLicences[_LicenceForSale[id].tokenId] = false;\n      token.safeTransferFrom(_LicenceForSale[id].seller, msg.sender, _LicenceForSale[id].tokenId);\n      token.setLicenceOwner(_LicenceForSale[id].tokenId, msg.sender);\n      _LicenceForSale[id].seller.transfer(msg.value);\n\n      emit LicenceSold(id, msg.sender, _LicenceForSale[id].price);\n    }\n\n    function get_LicenceForSale() public view\n      returns(LicenceForSale[] memory){\n        return _LicenceForSale;\n      }\n    \n    function getLength() public view returns (uint256) {\n      return _LicenceForSale.length;\n}\n\n}\n",
  "sourcePath": "/home/jorge/tfg/new-nft-market/contracts/marketplace.sol",
  "compiler": {
    "name": "solc",
    "version": "0.8.14+commit.80d49f37.Emscripten.clang"
  },
  "schemaVersion": "3.4.8",
  "updatedAt": "2022-07-10T16:12:18.636Z",
  "networkType": "ethereum",
  "devdoc": {
    "kind": "dev",
    "methods": {},
    "version": 1
  },
  "userdoc": {
    "kind": "user",
    "methods": {},
    "version": 1
  }
}